:020000020000FC
:02000000FFC03F
:10020000A0E08FEF93E030E871E011E021E094B9D5
:100210008AB9110F1BB923D0131709F0FACFABB964
:10022000132F25B91CD0220F25B919D0269525B931
:1002300016D0A5B91BB916951BB911D0171749F3DC
:10024000FACF43E55BEF6FEF6A95F1F75A95D9F76F
:100250004A95C1F742E04A95F1F70000089549E058
:100260005EE165EE6A95F1F75A95E1F74A95D1F7A7
:10027000089540ED5AEC5A95F1F74A95E1F7089543
:00000001FF
